:020000040000FA
:0400000023EF3CF0BE
:107841000100000001410EF66E780EF76E000EF891
:107851006E00EE15F010EE05F00900F5CFEEFFE534
:1078610050E150FAE1000EF86E000138EF3CF000F3
:107871000E956E000E8C6E938E939CF19E81BE448C
:10788100EF3CF046EF3CF06BEF3CF0820E136EDE06
:107891000EE82EFED7132EFCD7192A070E1918D879
:1078A100A455EF3CF057EF3CF06BEF3CF0010E19A3
:1078B1006E6BEF3CF008EC3EF03FEF3CF0E6EC3E47
:1078C100F03FEF3CF092EC3CF03FEF3CF043EC3DFD
:1078D100F03FEF3CF01950136E146A1450000AD8AF
:1078E100B475EF3CF03FEF3CF01350010AD8B45BA4
:1078F100EF3CF0030AD8B45FEF3CF0010AD8B4635F
:10790100EF3CF0070AD8B467EF3CF0010AD8B46342
:10791100EF3CF0030AD8B467EF3CF03FEF3CF000D6
:10792100EF00F0000E046E000E036E04BEA2EF3CE9
:10793100F0045009E1080E035CD8A0A2EF3CF0A4CA
:10794100EF3CF0A6EF3CF042EF3DF003C001F00147
:107951000E026E012AAFEF3CF0D8900236012EAD37
:10796100EF3CF002508C6E1504161017101810D849
:10797100A4BDEF3CF0BFEF3CF0C8EF3CF0820E013C
:107981006EDE0EE82EFED7012EFCD716EF3DF0027B
:107991000E1518161017101810D8A4D2EF3CF0D4F9
:1079A100EF3CF0E2EF3CF0020E026E040E016EBA03
:1079B1000EE82EFED7012EFCD7022EFAD700D016E4
:1079C100EF3DF0030E1518161017101810D8A4EC7F
:1079D100EF3CF0EEEF3CF0FCEF3CF0030E026E08E2
:1079E1000E016E770EE82EFED7012EFCD7022EFA7D
:1079F100D700F016EF3DF0040E15181610171018E9
:107A010010D8A406EF3DF008EF3DF016EF3DF0056C
:107A11000E026E0F0E016EF10EE82EFED7012EFC46
:107A2100D7022EFAD700F016EF3DF081BC1BEF3DD7
:107A3100F01DEF3DF03EEF3DF0820E016EDE0EE8EF
:107A41002EFED7012EFCD7010E1526000E16221789
:107A5100221822050E1518161017101810D8A43464
:107A6100EF3DF036EF3DF03EEF3DF0010E156E00BB
:107A71000E166E000E176E000E186E034A042A963B
:107A8100EF3CF01200000E086E000E076E000E06AD
:107A91006E070E056E08BE57EF3DF0085009E1086C
:107AA1000E075CD8A057EF3DF059EF3DF05BEF3D7D
:107AB100F007EF3EF005C001F0010E026E012A64ED
:107AC100EF3DF0D8900236012E62EF3DF007C00382
:107AD100F0010E046E032A70EF3DF0D890043603D6
:107AE1002E6EEF3DF0045002248C6E150416101713
:107AF100101810D8A47FEF3DF081EF3DF08AEF3DE3
:107B0100F0820E016EDE0EE82EFED7012EFCD7D8D4
:107B1100EF3DF0020E1518161017101810D8A49486
:107B2100EF3DF096EF3DF0A4EF3DF0020E026E0442
:107B31000E016EBA0EE82EFED7012EFCD7022EFAE8
:107B4100D700D0D8EF3DF0030E15181610171018F6
:107B510010D8A4AEEF3DF0B0EF3DF0BEEF3DF00325
:107B61000E026E080E016E770EE82EFED7012EFC76
:107B7100D7022EFAD700F0D8EF3DF0040E151816F3
:107B81001017101810D8A4C8EF3DF0CAEF3DF0D877
:107B9100EF3DF0050E026E0F0E016EF10EE82EFEA6
:107BA100D7012EFCD7022EFAD700F0D8EF3DF08195
:107BB100BCDDEF3DF0DFEF3DF000EF3EF0820E0166
:107BC1006EDE0EE82EFED7012EFCD7010E15260023
:107BD1000E162217221822050E1518161017101846
:107BE10010D8A4F6EF3DF0F8EF3DF000EF3EF001C4
:107BF1000E156E000E166E000E176E000E186E0733
:107C01004A082A0506D8A006064BEF3DF0120000EF
:107C11000E0A6E000E096E0ABE18EF3EF00A5009F8
:107C2100E1080E095CD8A018EF3EF01AEF3EF01CF7
:107C3100EF3EF0E5EF3EF009C001F0030E01260131
:107C41000E026E012A27EF3EF0D8900236012E2552
:107C5100EF3EF009C003F0020E0326010E046E038D
:107C61002A35EF3EF0D8900436032E33EF3EF0096B
:107C7100C005F0010E0526010E066E052A43EF3EF2
:107C8100F0D8900636052E41EF3EF009C007F0010D
:107C91000E086E072A4FEF3EF0D8900836072E4D9A
:107CA100EF3EF008500624042402248C6E150416BD
:107CB1001017101810D8A460EF3EF062EF3EF06B81
:107CC100EF3EF0820E016EDE0EE82EFED7012EFC95
:107CD100D7B9EF3EF0020E1518161017101810D86C
:107CE100A475EF3EF077EF3EF085EF3EF0020E0215
:107CF1006E040E016EBA0EE82EFED7012EFCD702DD
:107D01002EFAD700D0B9EF3EF0030E151816101752
:107D1100101810D8A48FEF3EF091EF3EF09FEF3E88
:107D2100F0030E026E080E016E770EE82EFED701EB
:107D31002EFCD7022EFAD700F0B9EF3EF0040E1553
:107D410018161017101810D8A4A9EF3EF0ABEF3E8B
:107D5100F0B9EF3EF0050E026E0F0E016EF10EE866
:107D61002EFED7012EFCD7022EFAD700F0B9EF3E36
:107D7100F081BCBEEF3EF0C0EF3EF0E1EF3EF0829D
:107D81000E016EDE0EE82EFED7012EFCD7010E1578
:107D910026000E162217221822050E151816101786
:107DA100101810D8A4D7EF3EF0D9EF3EF0E1EF3E26
:107DB100F0010E156E000E166E000E176E000E18F5
:107DC1006E094A0A2A0CEF3EF01200000E126E00F4
:107DD1000E116E12BEF6EF3EF0125009E1080E11BF
:107DE1005CD8A0F6EF3EF0F8EF3EF0FAEF3EF0FF80
:107DF100EF3FF011C001F0070E0126010E026E01E6
:107E01002A05EF3FF0D8900236012E03EF3FF01123
:107E1100C003F0060E0326010E046E032A13EF3F82
:107E2100F0D8900436032E11EF3FF011C005F00594
:107E31000E0526010E066E052A21EF3FF0D89006A9
:107E410036052E1FEF3FF011C007F0040E07260183
:107E51000E086E072A2FEF3FF0D8900836072E2D17
:107E6100EF3FF011C009F0030E0926010E0A6E0959
:107E71002A3DEF3FF0D8900A36092E3BEF3FF01133
:107E8100C00BF0020E0B26010E0C6E0B2A4BEF3FBE
:107E9100F0D8900C360B2E49EF3FF011C00DF001D8
:107EA1000E0D26010E0E6E0D2A59EF3FF0D8900EE1
:107EB100360D2E57EF3FF011C00FF0010E106E0F6F
:107EC1002A65EF3FF0D89010360F2E63EF3FF01088
:107ED100500E240C240A2408240624042402248C91
:107EE1006E1504161017101810D8A47AEF3FF07C05
:107EF100EF3FF085EF3FF0820E016EDE0EE82EFEC1
:107F0100D7012EFCD7D3EF3FF0020E15181610172C
:107F1100101810D8A48FEF3FF091EF3FF09FEF3F83
:107F2100F0020E026E040E016EBA0EE82EFED701AB
:107F31002EFCD7022EFAD700D0D3EF3FF0030E1557
:107F410018161017101810D8A4A9EF3FF0ABEF3F87
:107F5100F0B9EF3FF0030E026E080E016E770EE8E6
:107F61002EFED7012EFCD7022EFAD700F0D3EF3F19
:107F7100F0040E1518161017101810D8A4C3EF3FEF
:107F8100F0C5EF3FF0D3EF3FF0050E026E0F0E018B
:107F91006EF10EE82EFED7012EFCD7022EFAD70085
:107FA100F0D3EF3FF081BCD8EF3FF0DAEF3FF0FBC9
:107FB100EF3FF0820E016EDE0EE82EFED7012EFCA1
:107FC100D7010E1526000E162217221822050E15AE
:107FD10018161017101810D8A4F1EF3FF0F3EF3F67
:107FE100F0FBEF3FF0010E156E000E166E000E173E
:0F7FF1006E000E186E114A122AEAEF3EF01200CF
:020000040020DA
:08000000FFFFFFFFFFFFFFFF00
:020000040030CA
:0E00000000091F1EFF8181FF0FC00FE00F409F
:00000001FF
